{
	"_format": "hh-sol-artifact-1",
	"contractName": "TournamentScores",
	"sourceName": "contracts/TournamentScores.sol",
	"abi": [
		{
			"inputs": [],
			"stateMutability": "nonpayable",
			"type": "constructor"
		},
		{
			"anonymous": false,
			"inputs": [
				{
					"indexed": false,
					"internalType": "string",
					"name": "gameId",
					"type": "string"
				},
				{
					"indexed": false,
					"internalType": "string",
					"name": "tournamentId",
					"type": "string"
				},
				{
					"indexed": false,
					"internalType": "string",
					"name": "stageName",
					"type": "string"
				},
				{
					"indexed": false,
					"internalType": "string",
					"name": "player1Id",
					"type": "string"
				},
				{
					"indexed": false,
					"internalType": "uint8",
					"name": "player1Score",
					"type": "uint8"
				},
				{
					"indexed": false,
					"internalType": "string",
					"name": "player2Id",
					"type": "string"
				},
				{
					"indexed": false,
					"internalType": "uint256",
					"name": "player2Score",
					"type": "uint256"
				},
				{
					"indexed": false,
					"internalType": "uint256",
					"name": "timestamp",
					"type": "uint256"
				}
			],
			"name": "GameLog",
			"type": "event"
		},
		{
			"inputs": [],
			"name": "contractOwner",
			"outputs": [
				{
					"internalType": "address",
					"name": "",
					"type": "address"
				}
			],
			"stateMutability": "view",
			"type": "function"
		},
		{
			"inputs": [
				{
					"internalType": "string",
					"name": "gameId",
					"type": "string"
				}
			],
			"name": "getGame",
			"outputs": [
				{
					"internalType": "string",
					"name": "",
					"type": "string"
				},
				{
					"internalType": "string",
					"name": "",
					"type": "string"
				},
				{
					"internalType": "string",
					"name": "",
					"type": "string"
				},
				{
					"internalType": "string",
					"name": "",
					"type": "string"
				},
				{
					"internalType": "string",
					"name": "",
					"type": "string"
				},
				{
					"internalType": "uint8",
					"name": "",
					"type": "uint8"
				},
				{
					"internalType": "uint8",
					"name": "",
					"type": "uint8"
				}
			],
			"stateMutability": "view",
			"type": "function"
		},
		{
			"inputs": [
				{
					"internalType": "string",
					"name": "gameId",
					"type": "string"
				}
			],
			"name": "getGameLog",
			"outputs": [
				{
					"internalType": "string",
					"name": "",
					"type": "string"
				}
			],
			"stateMutability": "view",
			"type": "function"
		},
		{
			"inputs": [],
			"name": "getGamesCount",
			"outputs": [
				{
					"internalType": "uint256",
					"name": "",
					"type": "uint256"
				}
			],
			"stateMutability": "view",
			"type": "function"
		},
		{
			"inputs": [
				{
					"internalType": "string",
					"name": "_gameId",
					"type": "string"
				},
				{
					"internalType": "string",
					"name": "_tournamentId",
					"type": "string"
				},
				{
					"internalType": "string",
					"name": "_stageName",
					"type": "string"
				},
				{
					"internalType": "string",
					"name": "_player1",
					"type": "string"
				},
				{
					"internalType": "string",
					"name": "_player2",
					"type": "string"
				},
				{
					"internalType": "uint8",
					"name": "_player1Score",
					"type": "uint8"
				},
				{
					"internalType": "uint8",
					"name": "_player2Score",
					"type": "uint8"
				}
			],
			"name": "recordGame",
			"outputs": [],
			"stateMutability": "nonpayable",
			"type": "function"
		}
	],
	"bytecode": "0x608060405260008055348015601357600080fd5b5033600160006101000a81548173ffffffffffffffffffffffffffffffffffffffff021916908373ffffffffffffffffffffffffffffffffffffffff160217905550611a43806100646000396000f3fe608060405234801561001057600080fd5b50600436106100575760003560e01c806317b7a4761461005c5780633567985d1461007a5780634d92f652146100aa5780639560d7f0146100e0578063ce606ee0146100fc575b600080fd5b61006461011a565b6040516100719190610cfc565b60405180910390f35b610094600480360381019061008f9190610e71565b610123565b6040516100a19190610f39565b60405180910390f35b6100c460048036038101906100bf9190610e71565b610508565b6040516100d79796959493929190610f77565b60405180910390f35b6100fa60048036038101906100f59190611035565b610922565b005b610104610c08565b60405161011191906111a4565b60405180910390f35b60008054905090565b60606001151560028360405161013991906111fb565b908152602001604051809103902060050160029054906101000a900460ff1615151461019a576040517f08c379a00000000000000000000000000000000000000000000000000000000081526004016101919061125e565b60405180910390fd5b60006002836040516101ac91906111fb565b9081526020016040518091039020604051806101000160405290816000820180546101d6906112ad565b80601f0160208091040260200160405190810160405280929190818152602001828054610202906112ad565b801561024f5780601f106102245761010080835404028352916020019161024f565b820191906000526020600020905b81548152906001019060200180831161023257829003601f168201915b50505050508152602001600182018054610268906112ad565b80601f0160208091040260200160405190810160405280929190818152602001828054610294906112ad565b80156102e15780601f106102b6576101008083540402835291602001916102e1565b820191906000526020600020905b8154815290600101906020018083116102c457829003601f168201915b505050505081526020016002820180546102fa906112ad565b80601f0160208091040260200160405190810160405280929190818152602001828054610326906112ad565b80156103735780601f1061034857610100808354040283529160200191610373565b820191906000526020600020905b81548152906001019060200180831161035657829003601f168201915b5050505050815260200160038201805461038c906112ad565b80601f01602080910402602001604051908101604052809291908181526020018280546103b8906112ad565b80156104055780601f106103da57610100808354040283529160200191610405565b820191906000526020600020905b8154815290600101906020018083116103e857829003601f168201915b5050505050815260200160048201805461041e906112ad565b80601f016020809104026020016040519081016040528092919081815260200182805461044a906112ad565b80156104975780601f1061046c57610100808354040283529160200191610497565b820191906000526020600020905b81548152906001019060200180831161047a57829003601f168201915b505050505081526020016005820160009054906101000a900460ff1660ff1660ff1681526020016005820160019054906101000a900460ff1660ff1660ff1681526020016005820160029054906101000a900460ff161515151581525050905061050081610c2e565b915050919050565b60608060608060606000806001151560028960405161052791906111fb565b908152602001604051809103902060050160029054906101000a900460ff16151514610588576040517f08c379a000000000000000000000000000000000000000000000000000000000815260040161057f9061125e565b60405180910390fd5b600060028960405161059a91906111fb565b9081526020016040518091039020604051806101000160405290816000820180546105c4906112ad565b80601f01602080910402602001604051908101604052809291908181526020018280546105f0906112ad565b801561063d5780601f106106125761010080835404028352916020019161063d565b820191906000526020600020905b81548152906001019060200180831161062057829003601f168201915b50505050508152602001600182018054610656906112ad565b80601f0160208091040260200160405190810160405280929190818152602001828054610682906112ad565b80156106cf5780601f106106a4576101008083540402835291602001916106cf565b820191906000526020600020905b8154815290600101906020018083116106b257829003601f168201915b505050505081526020016002820180546106e8906112ad565b80601f0160208091040260200160405190810160405280929190818152602001828054610714906112ad565b80156107615780601f1061073657610100808354040283529160200191610761565b820191906000526020600020905b81548152906001019060200180831161074457829003601f168201915b5050505050815260200160038201805461077a906112ad565b80601f01602080910402602001604051908101604052809291908181526020018280546107a6906112ad565b80156107f35780601f106107c8576101008083540402835291602001916107f3565b820191906000526020600020905b8154815290600101906020018083116107d657829003601f168201915b5050505050815260200160048201805461080c906112ad565b80601f0160208091040260200160405190810160405280929190818152602001828054610838906112ad565b80156108855780601f1061085a57610100808354040283529160200191610885565b820191906000526020600020905b81548152906001019060200180831161086857829003601f168201915b505050505081526020016005820160009054906101000a900460ff1660ff1660ff1681526020016005820160019054906101000a900460ff1660ff1660ff1681526020016005820160029054906101000a900460ff1615151515815250509050806000015181602001518260400151836060015184608001518560a001518660c00151975097509750975097509750975050919395979092949650565b600160009054906101000a900473ffffffffffffffffffffffffffffffffffffffff1673ffffffffffffffffffffffffffffffffffffffff163373ffffffffffffffffffffffffffffffffffffffff16146109b2576040517f08c379a00000000000000000000000000000000000000000000000000000000081526004016109a99061132a565b60405180910390fd5b6002876040516109c291906111fb565b908152602001604051809103902060050160029054906101000a900460ff1615610a21576040517f08c379a0000000000000000000000000000000000000000000000000000000008152600401610a1890611396565b60405180910390fd5b8060ff168260ff1603610a69576040517f08c379a0000000000000000000000000000000000000000000000000000000008152600401610a6090611428565b60405180910390fd5b60006040518061010001604052808981526020018881526020018781526020018681526020018581526020018460ff1681526020018360ff16815260200160011515815250905080600289604051610ac191906111fb565b90815260200160405180910390206000820151816000019081610ae491906115f4565b506020820151816001019081610afa91906115f4565b506040820151816002019081610b1091906115f4565b506060820151816003019081610b2691906115f4565b506080820151816004019081610b3c91906115f4565b5060a08201518160050160006101000a81548160ff021916908360ff16021790555060c08201518160050160016101000a81548160ff021916908360ff16021790555060e08201518160050160026101000a81548160ff021916908315150217905550905050600080815480929190610bb4906116f5565b91905055507fac7e5afdd64b481c852df73761f8b9d0fb901bdaecd8e036cd2506614247abb38888888887898842604051610bf698979695949392919061176e565b60405180910390a15050505050505050565b600160009054906101000a900473ffffffffffffffffffffffffffffffffffffffff1681565b606060008260000151610c4084610c81565b610c4985610cb2565b85604001518660200151604051602001610c6795949392919061198b565b604051602081830303815290604052905080915050919050565b60608160c0015160ff168260a0015160ff161115610ca55781606001519050610cad565b816080015190505b919050565b60608160c0015160ff168260a0015160ff161015610cd65781606001519050610cde565b816080015190505b919050565b6000819050919050565b610cf681610ce3565b82525050565b6000602082019050610d116000830184610ced565b92915050565b6000604051905090565b600080fd5b600080fd5b600080fd5b600080fd5b6000601f19601f8301169050919050565b7f4e487b7100000000000000000000000000000000000000000000000000000000600052604160045260246000fd5b610d7e82610d35565b810181811067ffffffffffffffff82111715610d9d57610d9c610d46565b5b80604052505050565b6000610db0610d17565b9050610dbc8282610d75565b919050565b600067ffffffffffffffff821115610ddc57610ddb610d46565b5b610de582610d35565b9050602081019050919050565b82818337600083830152505050565b6000610e14610e0f84610dc1565b610da6565b905082815260208101848484011115610e3057610e2f610d30565b5b610e3b848285610df2565b509392505050565b600082601f830112610e5857610e57610d2b565b5b8135610e68848260208601610e01565b91505092915050565b600060208284031215610e8757610e86610d21565b5b600082013567ffffffffffffffff811115610ea557610ea4610d26565b5b610eb184828501610e43565b91505092915050565b600081519050919050565b600082825260208201905092915050565b60005b83811015610ef4578082015181840152602081019050610ed9565b60008484015250505050565b6000610f0b82610eba565b610f158185610ec5565b9350610f25818560208601610ed6565b610f2e81610d35565b840191505092915050565b60006020820190508181036000830152610f538184610f00565b905092915050565b600060ff82169050919050565b610f7181610f5b565b82525050565b600060e0820190508181036000830152610f91818a610f00565b90508181036020830152610fa58189610f00565b90508181036040830152610fb98188610f00565b90508181036060830152610fcd8187610f00565b90508181036080830152610fe18186610f00565b9050610ff060a0830185610f68565b610ffd60c0830184610f68565b98975050505050505050565b61101281610f5b565b811461101d57600080fd5b50565b60008135905061102f81611009565b92915050565b600080600080600080600060e0888a03121561105457611053610d21565b5b600088013567ffffffffffffffff81111561107257611071610d26565b5b61107e8a828b01610e43565b975050602088013567ffffffffffffffff81111561109f5761109e610d26565b5b6110ab8a828b01610e43565b965050604088013567ffffffffffffffff8111156110cc576110cb610d26565b5b6110d88a828b01610e43565b955050606088013567ffffffffffffffff8111156110f9576110f8610d26565b5b6111058a828b01610e43565b945050608088013567ffffffffffffffff81111561112657611125610d26565b5b6111328a828b01610e43565b93505060a06111438a828b01611020565b92505060c06111548a828b01611020565b91505092959891949750929550565b600073ffffffffffffffffffffffffffffffffffffffff82169050919050565b600061118e82611163565b9050919050565b61119e81611183565b82525050565b60006020820190506111b96000830184611195565b92915050565b600081905092915050565b60006111d582610eba565b6111df81856111bf565b93506111ef818560208601610ed6565b80840191505092915050565b600061120782846111ca565b915081905092915050565b7f4e6f207265636f726420666f72207265717565737465642067616d6549440000600082015250565b6000611248601e83610ec5565b915061125382611212565b602082019050919050565b600060208201905081810360008301526112778161123b565b9050919050565b7f4e487b7100000000000000000000000000000000000000000000000000000000600052602260045260246000fd5b600060028204905060018216806112c557607f821691505b6020821081036112d8576112d761127e565b5b50919050565b7f4e6f7420746865206f776e6572206f6620636f6e747261637400000000000000600082015250565b6000611314601983610ec5565b915061131f826112de565b602082019050919050565b6000602082019050818103600083015261134381611307565b9050919050565b7f47616d6520616c72656164792065786973740000000000000000000000000000600082015250565b6000611380601283610ec5565b915061138b8261134a565b602082019050919050565b600060208201905081810360008301526113af81611373565b9050919050565b7f47616d652077697468206472617720726573756c742073686f756c64206e6f7460008201527f2062652073746f72656400000000000000000000000000000000000000000000602082015250565b6000611412602a83610ec5565b915061141d826113b6565b604082019050919050565b6000602082019050818103600083015261144181611405565b9050919050565b60008190508160005260206000209050919050565b60006020601f8301049050919050565b600082821b905092915050565b6000600883026114aa7fffffffffffffffffffffffffffffffffffffffffffffffffffffffffffffffff8261146d565b6114b4868361146d565b95508019841693508086168417925050509392505050565b6000819050919050565b60006114f16114ec6114e784610ce3565b6114cc565b610ce3565b9050919050565b6000819050919050565b61150b836114d6565b61151f611517826114f8565b84845461147a565b825550505050565b600090565b611534611527565b61153f818484611502565b505050565b5b818110156115635761155860008261152c565b600181019050611545565b5050565b601f8211156115a85761157981611448565b6115828461145d565b81016020851015611591578190505b6115a561159d8561145d565b830182611544565b50505b505050565b600082821c905092915050565b60006115cb600019846008026115ad565b1980831691505092915050565b60006115e483836115ba565b9150826002028217905092915050565b6115fd82610eba565b67ffffffffffffffff81111561161657611615610d46565b5b61162082546112ad565b61162b828285611567565b600060209050601f83116001811461165e576000841561164c578287015190505b61165685826115d8565b8655506116be565b601f19841661166c86611448565b60005b828110156116945784890151825560018201915060208501945060208101905061166f565b868310156116b157848901516116ad601f8916826115ba565b8355505b6001600288020188555050505b505050505050565b7f4e487b7100000000000000000000000000000000000000000000000000000000600052601160045260246000fd5b600061170082610ce3565b91507fffffffffffffffffffffffffffffffffffffffffffffffffffffffffffffffff8203611732576117316116c6565b5b600182019050919050565b600061175861175361174e84610f5b565b6114cc565b610ce3565b9050919050565b6117688161173d565b82525050565b6000610100820190508181036000830152611789818b610f00565b9050818103602083015261179d818a610f00565b905081810360408301526117b18189610f00565b905081810360608301526117c58188610f00565b90506117d46080830187610f68565b81810360a08301526117e68186610f00565b90506117f560c083018561175f565b61180260e0830184610ced565b9998505050505050505050565b7f47616d652049443a000000000000000000000000000000000000000000000000600082015250565b60006118456008836111bf565b91506118508261180f565b600882019050919050565b7f2c2057696e6e65723a2000000000000000000000000000000000000000000000600082015250565b6000611891600a836111bf565b915061189c8261185b565b600a82019050919050565b7f2c204c6f7365723a200000000000000000000000000000000000000000000000600082015250565b60006118dd6009836111bf565b91506118e8826118a7565b600982019050919050565b7f496e204b6e6f636b6f7574207374616765000000000000000000000000000000600082015250565b60006119296011836111bf565b9150611934826118f3565b601182019050919050565b7f4f6620746f75726e616d656e742049643a200000000000000000000000000000600082015250565b60006119756012836111bf565b91506119808261193f565b601282019050919050565b600061199682611838565b91506119a282886111ca565b91506119ad82611884565b91506119b982876111ca565b91506119c4826118d0565b91506119d082866111ca565b91506119db8261191c565b91506119e782856111ca565b91506119f282611968565b91506119fe82846111ca565b9150819050969550505050505056fea2646970667358221220d269509dadbc27e3ed573dce2ea8f18de7f35fc2fad4eaaedb5f12ddb90e0f7a64736f6c634300081c0033",
	"linkReferences": {},
	"deployedLinkReferences": {}
}