{
	"_format": "hh-sol-artifact-1",
	"contractName": "TournamentScores",
	"sourceName": "contracts/TournamentScores.sol",
	"abi": [
		{
			"inputs": [],
			"stateMutability": "nonpayable",
			"type": "constructor"
		},
		{
			"anonymous": false,
			"inputs": [
				{
					"indexed": false,
					"internalType": "string",
					"name": "gameId",
					"type": "string"
				},
				{
					"indexed": false,
					"internalType": "string",
					"name": "player1Id",
					"type": "string"
				},
				{
					"indexed": false,
					"internalType": "uint8",
					"name": "player1Score",
					"type": "uint8"
				},
				{
					"indexed": false,
					"internalType": "string",
					"name": "player2Id",
					"type": "string"
				},
				{
					"indexed": false,
					"internalType": "uint256",
					"name": "player2Score",
					"type": "uint256"
				},
				{
					"indexed": false,
					"internalType": "uint256",
					"name": "timestamp",
					"type": "uint256"
				}
			],
			"name": "GameLog",
			"type": "event"
		},
		{
			"inputs": [],
			"name": "contractOwner",
			"outputs": [
				{
					"internalType": "address",
					"name": "",
					"type": "address"
				}
			],
			"stateMutability": "view",
			"type": "function"
		},
		{
			"inputs": [
				{
					"internalType": "string",
					"name": "gameId",
					"type": "string"
				}
			],
			"name": "getGame",
			"outputs": [
				{
					"internalType": "string",
					"name": "",
					"type": "string"
				},
				{
					"internalType": "string",
					"name": "",
					"type": "string"
				},
				{
					"internalType": "string",
					"name": "",
					"type": "string"
				},
				{
					"internalType": "uint8",
					"name": "",
					"type": "uint8"
				},
				{
					"internalType": "uint8",
					"name": "",
					"type": "uint8"
				}
			],
			"stateMutability": "view",
			"type": "function"
		},
		{
			"inputs": [
				{
					"internalType": "string",
					"name": "gameId",
					"type": "string"
				}
			],
			"name": "getGameLog",
			"outputs": [
				{
					"internalType": "string",
					"name": "",
					"type": "string"
				}
			],
			"stateMutability": "view",
			"type": "function"
		},
		{
			"inputs": [],
			"name": "getGamesCount",
			"outputs": [
				{
					"internalType": "uint256",
					"name": "",
					"type": "uint256"
				}
			],
			"stateMutability": "view",
			"type": "function"
		},
		{
			"inputs": [
				{
					"internalType": "string",
					"name": "_gameId",
					"type": "string"
				},
				{
					"internalType": "string",
					"name": "_player1",
					"type": "string"
				},
				{
					"internalType": "string",
					"name": "_player2",
					"type": "string"
				},
				{
					"internalType": "uint8",
					"name": "_player1Score",
					"type": "uint8"
				},
				{
					"internalType": "uint8",
					"name": "_player2Score",
					"type": "uint8"
				}
			],
			"name": "recordGame",
			"outputs": [],
			"stateMutability": "nonpayable",
			"type": "function"
		}
	],
	"bytecode": "0x608060405260008055348015601357600080fd5b5033600160006101000a81548173ffffffffffffffffffffffffffffffffffffffff021916908373ffffffffffffffffffffffffffffffffffffffff16021790555061161d806100646000396000f3fe608060405234801561001057600080fd5b50600436106100575760003560e01c806317b7a4761461005c5780633567985d1461007a5780634d92f652146100aa578063ce606ee0146100de578063e7505540146100fc575b600080fd5b610064610118565b6040516100719190610a52565b60405180910390f35b610094600480360381019061008f9190610bc7565b610121565b6040516100a19190610c8f565b60405180910390f35b6100c460048036038101906100bf9190610bc7565b6103e1565b6040516100d5959493929190610ccd565b60405180910390f35b6100e66106c3565b6040516100f39190610d76565b60405180910390f35b61011660048036038101906101119190610dbd565b6106e9565b005b60008054905090565b6060600115156002836040516101379190610ec8565b908152602001604051809103902060030160029054906101000a900460ff16151514610198576040517f08c379a000000000000000000000000000000000000000000000000000000000815260040161018f90610f2b565b60405180910390fd5b60006002836040516101aa9190610ec8565b90815260200160405180910390206040518060c00160405290816000820180546101d390610f7a565b80601f01602080910402602001604051908101604052809291908181526020018280546101ff90610f7a565b801561024c5780601f106102215761010080835404028352916020019161024c565b820191906000526020600020905b81548152906001019060200180831161022f57829003601f168201915b5050505050815260200160018201805461026590610f7a565b80601f016020809104026020016040519081016040528092919081815260200182805461029190610f7a565b80156102de5780601f106102b3576101008083540402835291602001916102de565b820191906000526020600020905b8154815290600101906020018083116102c157829003601f168201915b505050505081526020016002820180546102f790610f7a565b80601f016020809104026020016040519081016040528092919081815260200182805461032390610f7a565b80156103705780601f1061034557610100808354040283529160200191610370565b820191906000526020600020905b81548152906001019060200180831161035357829003601f168201915b505050505081526020016003820160009054906101000a900460ff1660ff1660ff1681526020016003820160019054906101000a900460ff1660ff1660ff1681526020016003820160029054906101000a900460ff16151515158152505090506103d981610990565b915050919050565b6060806060600080600115156002876040516103fd9190610ec8565b908152602001604051809103902060030160029054906101000a900460ff1615151461045e576040517f08c379a000000000000000000000000000000000000000000000000000000000815260040161045590610f2b565b60405180910390fd5b60006002876040516104709190610ec8565b90815260200160405180910390206040518060c001604052908160008201805461049990610f7a565b80601f01602080910402602001604051908101604052809291908181526020018280546104c590610f7a565b80156105125780601f106104e757610100808354040283529160200191610512565b820191906000526020600020905b8154815290600101906020018083116104f557829003601f168201915b5050505050815260200160018201805461052b90610f7a565b80601f016020809104026020016040519081016040528092919081815260200182805461055790610f7a565b80156105a45780601f10610579576101008083540402835291602001916105a4565b820191906000526020600020905b81548152906001019060200180831161058757829003601f168201915b505050505081526020016002820180546105bd90610f7a565b80601f01602080910402602001604051908101604052809291908181526020018280546105e990610f7a565b80156106365780601f1061060b57610100808354040283529160200191610636565b820191906000526020600020905b81548152906001019060200180831161061957829003601f168201915b505050505081526020016003820160009054906101000a900460ff1660ff1660ff1681526020016003820160019054906101000a900460ff1660ff1660ff1681526020016003820160029054906101000a900460ff161515151581525050905080600001518160200151826040015183606001518460800151955095509550955095505091939590929450565b600160009054906101000a900473ffffffffffffffffffffffffffffffffffffffff1681565b600160009054906101000a900473ffffffffffffffffffffffffffffffffffffffff1673ffffffffffffffffffffffffffffffffffffffff163373ffffffffffffffffffffffffffffffffffffffff1614610779576040517f08c379a000000000000000000000000000000000000000000000000000000000815260040161077090610ff7565b60405180910390fd5b6002856040516107899190610ec8565b908152602001604051809103902060030160029054906101000a900460ff16156107e8576040517f08c379a00000000000000000000000000000000000000000000000000000000081526004016107df90611063565b60405180910390fd5b8060ff168260ff1603610830576040517f08c379a0000000000000000000000000000000000000000000000000000000008152600401610827906110f5565b60405180910390fd5b60006040518060c001604052808781526020018681526020018581526020018460ff1681526020018360ff1681526020016001151581525090508060028760405161087b9190610ec8565b9081526020016040518091039020600082015181600001908161089e91906112c1565b5060208201518160010190816108b491906112c1565b5060408201518160020190816108ca91906112c1565b5060608201518160030160006101000a81548160ff021916908360ff16021790555060808201518160030160016101000a81548160ff021916908360ff16021790555060a08201518160030160026101000a81548160ff021916908315150217905550905050600080815480929190610942906113c2565b91905055507f28fdc12504fd5c4a1de3f56c5d495aa6af25048895ebca1fff675985373d13f98686858786426040516109809695949392919061143b565b60405180910390a1505050505050565b6060600082600001516109a2846109d7565b6109ab85610a08565b6040516020016109bd93929190611595565b604051602081830303815290604052905080915050919050565b6060816080015160ff16826060015160ff1611156109fb5781602001519050610a03565b816040015190505b919050565b6060816080015160ff16826060015160ff161015610a2c5781602001519050610a34565b816040015190505b919050565b6000819050919050565b610a4c81610a39565b82525050565b6000602082019050610a676000830184610a43565b92915050565b6000604051905090565b600080fd5b600080fd5b600080fd5b600080fd5b6000601f19601f8301169050919050565b7f4e487b7100000000000000000000000000000000000000000000000000000000600052604160045260246000fd5b610ad482610a8b565b810181811067ffffffffffffffff82111715610af357610af2610a9c565b5b80604052505050565b6000610b06610a6d565b9050610b128282610acb565b919050565b600067ffffffffffffffff821115610b3257610b31610a9c565b5b610b3b82610a8b565b9050602081019050919050565b82818337600083830152505050565b6000610b6a610b6584610b17565b610afc565b905082815260208101848484011115610b8657610b85610a86565b5b610b91848285610b48565b509392505050565b600082601f830112610bae57610bad610a81565b5b8135610bbe848260208601610b57565b91505092915050565b600060208284031215610bdd57610bdc610a77565b5b600082013567ffffffffffffffff811115610bfb57610bfa610a7c565b5b610c0784828501610b99565b91505092915050565b600081519050919050565b600082825260208201905092915050565b60005b83811015610c4a578082015181840152602081019050610c2f565b60008484015250505050565b6000610c6182610c10565b610c6b8185610c1b565b9350610c7b818560208601610c2c565b610c8481610a8b565b840191505092915050565b60006020820190508181036000830152610ca98184610c56565b905092915050565b600060ff82169050919050565b610cc781610cb1565b82525050565b600060a0820190508181036000830152610ce78188610c56565b90508181036020830152610cfb8187610c56565b90508181036040830152610d0f8186610c56565b9050610d1e6060830185610cbe565b610d2b6080830184610cbe565b9695505050505050565b600073ffffffffffffffffffffffffffffffffffffffff82169050919050565b6000610d6082610d35565b9050919050565b610d7081610d55565b82525050565b6000602082019050610d8b6000830184610d67565b92915050565b610d9a81610cb1565b8114610da557600080fd5b50565b600081359050610db781610d91565b92915050565b600080600080600060a08688031215610dd957610dd8610a77565b5b600086013567ffffffffffffffff811115610df757610df6610a7c565b5b610e0388828901610b99565b955050602086013567ffffffffffffffff811115610e2457610e23610a7c565b5b610e3088828901610b99565b945050604086013567ffffffffffffffff811115610e5157610e50610a7c565b5b610e5d88828901610b99565b9350506060610e6e88828901610da8565b9250506080610e7f88828901610da8565b9150509295509295909350565b600081905092915050565b6000610ea282610c10565b610eac8185610e8c565b9350610ebc818560208601610c2c565b80840191505092915050565b6000610ed48284610e97565b915081905092915050565b7f4e6f207265636f726420666f72207265717565737465642067616d6549440000600082015250565b6000610f15601e83610c1b565b9150610f2082610edf565b602082019050919050565b60006020820190508181036000830152610f4481610f08565b9050919050565b7f4e487b7100000000000000000000000000000000000000000000000000000000600052602260045260246000fd5b60006002820490506001821680610f9257607f821691505b602082108103610fa557610fa4610f4b565b5b50919050565b7f4e6f7420746865206f776e6572206f6620636f6e747261637400000000000000600082015250565b6000610fe1601983610c1b565b9150610fec82610fab565b602082019050919050565b6000602082019050818103600083015261101081610fd4565b9050919050565b7f47616d6520616c72656164792065786973740000000000000000000000000000600082015250565b600061104d601283610c1b565b915061105882611017565b602082019050919050565b6000602082019050818103600083015261107c81611040565b9050919050565b7f47616d652077697468206472617720726573756c742073686f756c64206e6f7460008201527f2062652073746f72656400000000000000000000000000000000000000000000602082015250565b60006110df602a83610c1b565b91506110ea82611083565b604082019050919050565b6000602082019050818103600083015261110e816110d2565b9050919050565b60008190508160005260206000209050919050565b60006020601f8301049050919050565b600082821b905092915050565b6000600883026111777fffffffffffffffffffffffffffffffffffffffffffffffffffffffffffffffff8261113a565b611181868361113a565b95508019841693508086168417925050509392505050565b6000819050919050565b60006111be6111b96111b484610a39565b611199565b610a39565b9050919050565b6000819050919050565b6111d8836111a3565b6111ec6111e4826111c5565b848454611147565b825550505050565b600090565b6112016111f4565b61120c8184846111cf565b505050565b5b81811015611230576112256000826111f9565b600181019050611212565b5050565b601f8211156112755761124681611115565b61124f8461112a565b8101602085101561125e578190505b61127261126a8561112a565b830182611211565b50505b505050565b600082821c905092915050565b60006112986000198460080261127a565b1980831691505092915050565b60006112b18383611287565b9150826002028217905092915050565b6112ca82610c10565b67ffffffffffffffff8111156112e3576112e2610a9c565b5b6112ed8254610f7a565b6112f8828285611234565b600060209050601f83116001811461132b5760008415611319578287015190505b61132385826112a5565b86555061138b565b601f19841661133986611115565b60005b828110156113615784890151825560018201915060208501945060208101905061133c565b8683101561137e578489015161137a601f891682611287565b8355505b6001600288020188555050505b505050505050565b7f4e487b7100000000000000000000000000000000000000000000000000000000600052601160045260246000fd5b60006113cd82610a39565b91507fffffffffffffffffffffffffffffffffffffffffffffffffffffffffffffffff82036113ff576113fe611393565b5b600182019050919050565b600061142561142061141b84610cb1565b611199565b610a39565b9050919050565b6114358161140a565b82525050565b600060c08201905081810360008301526114558189610c56565b905081810360208301526114698188610c56565b90506114786040830187610cbe565b818103606083015261148a8186610c56565b9050611499608083018561142c565b6114a660a0830184610a43565b979650505050505050565b7f47616d652049443a000000000000000000000000000000000000000000000000600082015250565b60006114e7600883610e8c565b91506114f2826114b1565b600882019050919050565b7f2c2057696e6e65723a2000000000000000000000000000000000000000000000600082015250565b6000611533600a83610e8c565b915061153e826114fd565b600a82019050919050565b7f2c204c6f7365723a200000000000000000000000000000000000000000000000600082015250565b600061157f600983610e8c565b915061158a82611549565b600982019050919050565b60006115a0826114da565b91506115ac8286610e97565b91506115b782611526565b91506115c38285610e97565b91506115ce82611572565b91506115da8284610e97565b915081905094935050505056fea26469706673582212202afe4a6eba834a551c4e31343d681802f214733b3faaf652b39a44842fd994b364736f6c634300081c0033",
	"linkReferences": {},
	"deployedLinkReferences": {}
}