{
  "_format": "hh-sol-artifact-1",
  "contractName": "TournamentScores",
  "sourceName": "contracts/TournamentScores.sol",
  "abi": [
    {
      "anonymous": false,
      "inputs": [
        {
          "indexed": false,
          "internalType": "string",
          "name": "gameId",
          "type": "string"
        },
        {
          "indexed": false,
          "internalType": "string",
          "name": "player1Id",
          "type": "string"
        },
        {
          "indexed": false,
          "internalType": "uint8",
          "name": "player1Score",
          "type": "uint8"
        },
        {
          "indexed": false,
          "internalType": "string",
          "name": "player2Id",
          "type": "string"
        },
        {
          "indexed": false,
          "internalType": "uint256",
          "name": "player2Score",
          "type": "uint256"
        },
        {
          "indexed": false,
          "internalType": "uint256",
          "name": "timestamp",
          "type": "uint256"
        }
      ],
      "name": "GameLog",
      "type": "event"
    },
    {
      "inputs": [
        {
          "internalType": "string",
          "name": "gameId",
          "type": "string"
        }
      ],
      "name": "getGame",
      "outputs": [
        {
          "internalType": "string",
          "name": "",
          "type": "string"
        },
        {
          "internalType": "string",
          "name": "",
          "type": "string"
        },
        {
          "internalType": "string",
          "name": "",
          "type": "string"
        },
        {
          "internalType": "uint8",
          "name": "",
          "type": "uint8"
        },
        {
          "internalType": "uint8",
          "name": "",
          "type": "uint8"
        }
      ],
      "stateMutability": "view",
      "type": "function"
    },
    {
      "inputs": [
        {
          "internalType": "string",
          "name": "gameId",
          "type": "string"
        }
      ],
      "name": "getGameLog",
      "outputs": [
        {
          "internalType": "string",
          "name": "",
          "type": "string"
        }
      ],
      "stateMutability": "view",
      "type": "function"
    },
    {
      "inputs": [],
      "name": "getGamesCount",
      "outputs": [
        {
          "internalType": "uint256",
          "name": "",
          "type": "uint256"
        }
      ],
      "stateMutability": "view",
      "type": "function"
    },
    {
      "inputs": [
        {
          "internalType": "string",
          "name": "_gameId",
          "type": "string"
        },
        {
          "internalType": "string",
          "name": "_player1",
          "type": "string"
        },
        {
          "internalType": "string",
          "name": "_player2",
          "type": "string"
        },
        {
          "internalType": "uint8",
          "name": "_player1Score",
          "type": "uint8"
        },
        {
          "internalType": "uint8",
          "name": "_player2Score",
          "type": "uint8"
        }
      ],
      "name": "recordGame",
      "outputs": [],
      "stateMutability": "nonpayable",
      "type": "function"
    }
  ],
  "bytecode": "0x608060405260008055348015601357600080fd5b50611476806100236000396000f3fe608060405234801561001057600080fd5b506004361061004c5760003560e01c806317b7a476146100515780633567985d1461006f5780634d92f6521461009f578063e7505540146100d3575b600080fd5b6100596100ef565b6040516100669190610973565b60405180910390f35b61008960048036038101906100849190610ae8565b6100f8565b6040516100969190610bb0565b60405180910390f35b6100b960048036038101906100b49190610ae8565b6103b8565b6040516100ca959493929190610bee565b60405180910390f35b6100ed60048036038101906100e89190610c82565b61069a565b005b60008054905090565b60606001151560018360405161010e9190610d8d565b908152602001604051809103902060030160029054906101000a900460ff1615151461016f576040517f08c379a000000000000000000000000000000000000000000000000000000000815260040161016690610df0565b60405180910390fd5b60006001836040516101819190610d8d565b90815260200160405180910390206040518060c00160405290816000820180546101aa90610e3f565b80601f01602080910402602001604051908101604052809291908181526020018280546101d690610e3f565b80156102235780601f106101f857610100808354040283529160200191610223565b820191906000526020600020905b81548152906001019060200180831161020657829003601f168201915b5050505050815260200160018201805461023c90610e3f565b80601f016020809104026020016040519081016040528092919081815260200182805461026890610e3f565b80156102b55780601f1061028a576101008083540402835291602001916102b5565b820191906000526020600020905b81548152906001019060200180831161029857829003601f168201915b505050505081526020016002820180546102ce90610e3f565b80601f01602080910402602001604051908101604052809291908181526020018280546102fa90610e3f565b80156103475780601f1061031c57610100808354040283529160200191610347565b820191906000526020600020905b81548152906001019060200180831161032a57829003601f168201915b505050505081526020016003820160009054906101000a900460ff1660ff1660ff1681526020016003820160019054906101000a900460ff1660ff1660ff1681526020016003820160029054906101000a900460ff16151515158152505090506103b0816108b1565b915050919050565b6060806060600080600115156001876040516103d49190610d8d565b908152602001604051809103902060030160029054906101000a900460ff16151514610435576040517f08c379a000000000000000000000000000000000000000000000000000000000815260040161042c90610df0565b60405180910390fd5b60006001876040516104479190610d8d565b90815260200160405180910390206040518060c001604052908160008201805461047090610e3f565b80601f016020809104026020016040519081016040528092919081815260200182805461049c90610e3f565b80156104e95780601f106104be576101008083540402835291602001916104e9565b820191906000526020600020905b8154815290600101906020018083116104cc57829003601f168201915b5050505050815260200160018201805461050290610e3f565b80601f016020809104026020016040519081016040528092919081815260200182805461052e90610e3f565b801561057b5780601f106105505761010080835404028352916020019161057b565b820191906000526020600020905b81548152906001019060200180831161055e57829003601f168201915b5050505050815260200160028201805461059490610e3f565b80601f01602080910402602001604051908101604052809291908181526020018280546105c090610e3f565b801561060d5780601f106105e25761010080835404028352916020019161060d565b820191906000526020600020905b8154815290600101906020018083116105f057829003601f168201915b505050505081526020016003820160009054906101000a900460ff1660ff1660ff1681526020016003820160019054906101000a900460ff1660ff1660ff1681526020016003820160029054906101000a900460ff161515151581525050905080600001518160200151826040015183606001518460800151955095509550955095505091939590929450565b6001856040516106aa9190610d8d565b908152602001604051809103902060030160029054906101000a900460ff1615610709576040517f08c379a000000000000000000000000000000000000000000000000000000000815260040161070090610ebc565b60405180910390fd5b8060ff168260ff1603610751576040517f08c379a000000000000000000000000000000000000000000000000000000000815260040161074890610f4e565b60405180910390fd5b60006040518060c001604052808781526020018681526020018581526020018460ff1681526020018360ff1681526020016001151581525090508060018760405161079c9190610d8d565b908152602001604051809103902060008201518160000190816107bf919061111a565b5060208201518160010190816107d5919061111a565b5060408201518160020190816107eb919061111a565b5060608201518160030160006101000a81548160ff021916908360ff16021790555060808201518160030160016101000a81548160ff021916908360ff16021790555060a08201518160030160026101000a81548160ff0219169083151502179055509050506000808154809291906108639061121b565b91905055507f28fdc12504fd5c4a1de3f56c5d495aa6af25048895ebca1fff675985373d13f98686858786426040516108a196959493929190611294565b60405180910390a1505050505050565b6060600082600001516108c3846108f8565b6108cc85610929565b6040516020016108de939291906113ee565b604051602081830303815290604052905080915050919050565b6060816080015160ff16826060015160ff16111561091c5781602001519050610924565b816040015190505b919050565b6060816080015160ff16826060015160ff16101561094d5781602001519050610955565b816040015190505b919050565b6000819050919050565b61096d8161095a565b82525050565b60006020820190506109886000830184610964565b92915050565b6000604051905090565b600080fd5b600080fd5b600080fd5b600080fd5b6000601f19601f8301169050919050565b7f4e487b7100000000000000000000000000000000000000000000000000000000600052604160045260246000fd5b6109f5826109ac565b810181811067ffffffffffffffff82111715610a1457610a136109bd565b5b80604052505050565b6000610a2761098e565b9050610a3382826109ec565b919050565b600067ffffffffffffffff821115610a5357610a526109bd565b5b610a5c826109ac565b9050602081019050919050565b82818337600083830152505050565b6000610a8b610a8684610a38565b610a1d565b905082815260208101848484011115610aa757610aa66109a7565b5b610ab2848285610a69565b509392505050565b600082601f830112610acf57610ace6109a2565b5b8135610adf848260208601610a78565b91505092915050565b600060208284031215610afe57610afd610998565b5b600082013567ffffffffffffffff811115610b1c57610b1b61099d565b5b610b2884828501610aba565b91505092915050565b600081519050919050565b600082825260208201905092915050565b60005b83811015610b6b578082015181840152602081019050610b50565b60008484015250505050565b6000610b8282610b31565b610b8c8185610b3c565b9350610b9c818560208601610b4d565b610ba5816109ac565b840191505092915050565b60006020820190508181036000830152610bca8184610b77565b905092915050565b600060ff82169050919050565b610be881610bd2565b82525050565b600060a0820190508181036000830152610c088188610b77565b90508181036020830152610c1c8187610b77565b90508181036040830152610c308186610b77565b9050610c3f6060830185610bdf565b610c4c6080830184610bdf565b9695505050505050565b610c5f81610bd2565b8114610c6a57600080fd5b50565b600081359050610c7c81610c56565b92915050565b600080600080600060a08688031215610c9e57610c9d610998565b5b600086013567ffffffffffffffff811115610cbc57610cbb61099d565b5b610cc888828901610aba565b955050602086013567ffffffffffffffff811115610ce957610ce861099d565b5b610cf588828901610aba565b945050604086013567ffffffffffffffff811115610d1657610d1561099d565b5b610d2288828901610aba565b9350506060610d3388828901610c6d565b9250506080610d4488828901610c6d565b9150509295509295909350565b600081905092915050565b6000610d6782610b31565b610d718185610d51565b9350610d81818560208601610b4d565b80840191505092915050565b6000610d998284610d5c565b915081905092915050565b7f4e6f207265636f726420666f72207265717565737465642067616d6549440000600082015250565b6000610dda601e83610b3c565b9150610de582610da4565b602082019050919050565b60006020820190508181036000830152610e0981610dcd565b9050919050565b7f4e487b7100000000000000000000000000000000000000000000000000000000600052602260045260246000fd5b60006002820490506001821680610e5757607f821691505b602082108103610e6a57610e69610e10565b5b50919050565b7f47616d6520616c72656164792065786973740000000000000000000000000000600082015250565b6000610ea6601283610b3c565b9150610eb182610e70565b602082019050919050565b60006020820190508181036000830152610ed581610e99565b9050919050565b7f47616d652077697468206472617720726573756c742073686f756c64206e6f7460008201527f2062652073746f72656400000000000000000000000000000000000000000000602082015250565b6000610f38602a83610b3c565b9150610f4382610edc565b604082019050919050565b60006020820190508181036000830152610f6781610f2b565b9050919050565b60008190508160005260206000209050919050565b60006020601f8301049050919050565b600082821b905092915050565b600060088302610fd07fffffffffffffffffffffffffffffffffffffffffffffffffffffffffffffffff82610f93565b610fda8683610f93565b95508019841693508086168417925050509392505050565b6000819050919050565b600061101761101261100d8461095a565b610ff2565b61095a565b9050919050565b6000819050919050565b61103183610ffc565b61104561103d8261101e565b848454610fa0565b825550505050565b600090565b61105a61104d565b611065818484611028565b505050565b5b818110156110895761107e600082611052565b60018101905061106b565b5050565b601f8211156110ce5761109f81610f6e565b6110a884610f83565b810160208510156110b7578190505b6110cb6110c385610f83565b83018261106a565b50505b505050565b600082821c905092915050565b60006110f1600019846008026110d3565b1980831691505092915050565b600061110a83836110e0565b9150826002028217905092915050565b61112382610b31565b67ffffffffffffffff81111561113c5761113b6109bd565b5b6111468254610e3f565b61115182828561108d565b600060209050601f8311600181146111845760008415611172578287015190505b61117c85826110fe565b8655506111e4565b601f19841661119286610f6e565b60005b828110156111ba57848901518255600182019150602085019450602081019050611195565b868310156111d757848901516111d3601f8916826110e0565b8355505b6001600288020188555050505b505050505050565b7f4e487b7100000000000000000000000000000000000000000000000000000000600052601160045260246000fd5b60006112268261095a565b91507fffffffffffffffffffffffffffffffffffffffffffffffffffffffffffffffff8203611258576112576111ec565b5b600182019050919050565b600061127e61127961127484610bd2565b610ff2565b61095a565b9050919050565b61128e81611263565b82525050565b600060c08201905081810360008301526112ae8189610b77565b905081810360208301526112c28188610b77565b90506112d16040830187610bdf565b81810360608301526112e38186610b77565b90506112f26080830185611285565b6112ff60a0830184610964565b979650505050505050565b7f47616d652049443a000000000000000000000000000000000000000000000000600082015250565b6000611340600883610d51565b915061134b8261130a565b600882019050919050565b7f2c2057696e6e65723a2000000000000000000000000000000000000000000000600082015250565b600061138c600a83610d51565b915061139782611356565b600a82019050919050565b7f2c204c6f7365723a200000000000000000000000000000000000000000000000600082015250565b60006113d8600983610d51565b91506113e3826113a2565b600982019050919050565b60006113f982611333565b91506114058286610d5c565b91506114108261137f565b915061141c8285610d5c565b9150611427826113cb565b91506114338284610d5c565b915081905094935050505056fea2646970667358221220c3dfcfde13d17adcd8c4838c4df1ef34d22a3c13a0dec299ab833e23d678af0264736f6c634300081c0033",
  "linkReferences": {},
  "deployedLinkReferences": {}
}